:020000040000FA
:1000000070060020551900005D1900005F190000FE
:10001000611900006319000065190000000000006C
:100020000000000000000000000000006719000050
:1000300069190000000000006B1900006D19000034
:100040006F1900006F1900006F1900006F19000090
:100050006F1900006F1900006F1900006F19000080
:100060006F1900006F1900006F1900006F19000070
:100070006F1900006F1900006F1900006F19000060
:100080006F1900006F1900006F1900006F19000050
:100090006F1900006F1900006F1900006F19000040
:1000A0006F1900006F1900006F1900006F19000030
:1000B0006F1900006F1900006F1900006F19000020
:1000C0006F1900006F1900006F1900006F19000010
:1000D0006F1900006F19000000F002F800F03AF804
:1000E0000AA090E8000C82448344AAF10107DA4593
:1000F00001D100F02FF8AFF2090EBAE80F0013F0AB
:10010000010F18BFFB1A43F0010318477C270000BA
:100110009C270000103A24BF78C878C1FAD852074B
:1001200024BF30C830C144BF04680C607047000071
:100130000023002400250026103A28BF78C1FBD8F0
:10014000520728BF30C148BF0B6070471FB51FBDA5
:1001500010B510BD02F084FA1146FFF7F7FF00F06A
:100160002CFB02F0B5FA03B4FFF7F2FF03BC00F07A
:1001700046F8000000BFFEE70021C82300FB03F2A1
:1001800000BF4B1C19469342FBD3704738B5044659
:100190000D46E0B200900A2C0BD10D20009000BF5C
:1001A0006A460121FE4801F052FB0028F8D00A20DF
:1001B000009000BF6A460121F94801F048FB002881
:1001C000F8D09DF8000038BD38B5044600BF6A4637
:1001D0000121F34801F064FB0028F8D09DF80000ED
:1001E00038BD01464FF0FF30704701B500BF6A4689
:1001F0000121EB4801F02BFB0028F8D008BD00BF1F
:10020000FEE710B54FF0FF31002000F0EDFC10BD0F
:1002100070B504460D46E348844202D0E248844269
:1002200000D103E02221E1A0FFF7A4FFA58370BD68
:1002300038B5054600950021DA4801F022F800BFE4
:100240006A460121D74801F0C5F80446012CF7DBC6
:100250000121D44801F0F2F838BDF8B5FF20009034
:100260000121D04801F00DF800BF6A460121CD48B8
:1002700001F0B0F80446012CF7DB0121C94801F078
:10028000DDF800BF6A460121C64801F069F805465D
:10029000012DF7DB0098C6B23046F8BD10B5F92144
:1002A000C048FFF7B5FF10BD10B50321BD48FFF7EB
:1002B000AFFF10BD08B500208DF8000001208DF8BB
:1002C000010008208DF8020000208DF80300694627
:1002D000B44800F053FF0121B24800F0BFFF08BD51
:1002E00010B5044602E0FF20FFF7A2FF2000A4F1B2
:1002F0000101CCB2F7D110BD10B5002400BFFFF74B
:10030000ACFFFF2801D1002010BD641C6FF07F40BE
:100310008442F4D30120F7E72DE9F04105460E466B
:1003200000277F2700BFFFF798FF0446FF2C04D16A
:100330003800A7F10101CFB2F5D114F0F00F02D1CE
:100340000120BDE8F081FE2C10D103E0FFF785FF0E
:1003500028706D1C3000A6F101018EB2F6D1FF208D
:10036000FFF766FFFF20FFF763FF01E00220E8E7E9
:100370000020E6E770B506460D46FFF7BDFF08B161
:10038000012070BD2846FFF753FFFD2D18D0002433
:1003900004E0305DFFF74CFF601C84B2B4F5007FD1
:1003A000F7DBFF20FFF744FFFF20FFF741FFFFF7D8
:1003B00054FF044604F01F00052801D00220E0E7A6
:1003C0000020DEE72DE9F04788B005460C4691464F
:1003D0004FF0000A0120FFF783FFFFF78DFF18B1F0
:1003E000FF2008B0BDE8F08745F040000190200EE6
:1003F0000290200C0390200A04900594CDF81890E8
:10040000FF2007900C2D02D14FF0070801E04FF0BC
:1004100006080021634800F034FF00BF01AA4146EE
:10042000604800F0D7FF0746012FF7DB41465D48E3
:1004300001F004F84FF01F0A00BFFFF70EFF064659
:1004400016F0800F06D05FEA0A00AAF1010101F060
:10045000FF0AF2D13046C4E770B5054601220021FB
:100460000A20FFF7AFFF044624B910212846FFF702
:1004700053FF04460120FFF733FF0CB1012070BD8C
:100480000020FCE770B50546012200210920FFF796
:1004900099FF044624B910212846FFF73DFF044682
:1004A0000120FFF71DFF0CB1012070BD0020FCE70B
:1004B0007FB56846FFF7E6FF10B1002004B070BDBD
:1004C0009DF8000000F0C000402809D19DF8090007
:1004D0009DF8081000EB0120401C84B2A50220E02A
:1004E0009DF8050000F00F009DF80A1000EBD110F8
:1004F0009DF8091001F0030100EB4100861C9DF8F6
:10050000080080119DF8071000EB81009DF806108F
:1005100001F0030100EB8120441CA6F1090004FA5C
:1005200000F52846CAE7F8B5FFF7C4FEFFF7B6FEA8
:10053000002504E0FF20FFF77BFE681C85B20A2D32
:10054000F8DB142600BF952200210846FFF73AFF8A
:100550000446012C03D03000A6F10106F3D100209F
:1005600014490870012C55D187224FF4D571082009
:10057000FFF728FF012852D1002505E0FFF76DFEA7
:100580000DF80500681C85B2042DF7DB9DF802000C
:100590000128E8D19DF80300AA287FD10CE00000D3
:1005A00000E000410040004100B000416D61696E13
:1005B0002E630000000000204FF6FE7600BF0122EF
:1005C00000213720FFF7FEFE012291072920FFF7C7
:1005D000F9FE04461CB13000A6F10106EFD1002E51
:1005E0005CD0012200213A20FFF7ECFE002855D113
:1005F000002505E0FFF731FE0DF80500681C85B207
:10060000042DF7DB9DF8000010F0400F03D006200A
:10061000F749087042E00420F54908703EE00122E5
:1006200000213720FFF7CEFE012200212920FFF70D
:10063000C9FE0446012C16DC0220ED4908704FF675
:10064000FE7600BF012200213720FFF7BBFE01220A
:1006500000212920FFF7B6FE0446ACB13000A6F118
:100660000106EFD110E00120E14908704FF6FE7657
:1006700000BF012200211046FFF7A4FE04461CB172
:100680003000A6F10106F4D12EB101225102102052
:10069000FFF798FE10B10020D54908700120FFF740
:1006A0001FFEFFF701FED248007808B10020F8BD18
:1006B0000CB12046FBE7AA20F9E72DE9F0410646F8
:1006C0000F461546CA480078062800D07F02012D43
:1006D0000CD1012239461120FFF774FE0446FCB903
:1006E00069023046FFF718FE044619E00122394638
:1006F0001220FFF767FE044600BF4FF4007130463A
:10070000FFF70AFE044606F50076681EC0B2050033
:1007100001D0002CF1D0012200210C20FFF752FE65
:100720000120FFF7DDFD2046BDE8F0812DE9F04115
:1007300006460F461546AE480078062800D07F02D0
:10074000012D0CD1012239461820FFF73BFE04464B
:100750006CBBFE213046FFF70DFE044627E0A4489F
:100760000078012809D0012200213720FFF72AFE56
:10077000012229461720FFF725FE012239461920BC
:10078000FFF720FE044694B900BFFC213046FFF776
:10079000F1FD044606F50076681EC0B2050001D0E2
:1007A000002CF2D0FD210020FFF7E4FD04460120DB
:1007B000FFF796FD2046BDE8F081ADF5D16D4FF015
:1007C000000A1020199001A800F091FF01A98948A2
:1007D00000F001FF0121874800F0C5FF01208DF8DE
:1007E0000C0010208DF80D008DF80E000001ADF802
:1007F0001000814903A801F03AFCFFF702FD032233
:100800001146002000F05BFA002604E000200DF203
:1008100074618855761C142EF8D300BFFFF783FE51
:100820000DF27460FFF718FE8246BAF1010FF5D0A1
:1008300042F61840059044F22840069045F23000F8
:10084000079045F63840089046F64000099047F278
:1008500048400A9048F250000B9048F658400C90DF
:1008600049F660000D904AF268400E904BF270001D
:100870000F904BF6784010904CF6800011904DF29E
:10088000884012904EF29000139042F210001490A3
:10089000002559E0002453E0FF2C07D8E043C1B203
:1008A0004FF0C44202EBC520015348E0B4F5007F8D
:1008B00008D2E0B240F478414FF0C44202EBC520C8
:1008C00001533CE0B4F5407F07D24FF4FC614FF098
:1008D000C44202EBC520015331E0B4F5806F07D26A
:1008E0004FF6E0714FF0C44202EBC520015326E001
:1008F000B4F5A06F06D21F214FF0C44202EBC52011
:1009000001531CE0B4F5C06F07D24FF61F014FF042
:10091000C44202EBC520015311E0B4F5E06F07D2E9
:1009200040F2FF714FF0C44202EBC520015306E0D4
:100930004FF6FF714FF0C44202EBC5200153A41CD7
:10094000B4F5006FA8D36D1CB5F5407FA2D3002588
:1009500060E000245AE0FF2C06D8E1B24FF02022DC
:1009600002EBC520015350E0B4F5007F09D2E0430B
:10097000C0B240F478414FF0202202EBC520015371
:1009800043E0B4F5407F07D24FF4FC614FF02022E2
:1009900002EBC520015338E0B4F5806F07D24FF663
:1009A000E0714FF0202202EBC52001532DE0B4F599
:1009B000A06F06D21F214FF0202202EBC520015369
:1009C00023E0B4F5C06F07D24FF61F014FF020228D
:1009D00002EBC520015318E0B4F5E06F0ED240F2EF
:1009E000FF714FF0202202EBC52001530DE0000003
:1009F0000000002000E00041202800004FF6FF71B9
:100A00004FF0202202EBC5200153A41CB4F5006F67
:100A1000A1D36D1C182D9CD300276EE005A850F8BB
:100A20002710199808441A9046484FF4001101FB0A
:100A3000070B780500F1C040CDF86C06D9460026BA
:100A400000240320CDF870063AE01A9881191BA8FB
:100A5000DDF87026FFF731FE8246BAF1000F2BD188
:100A60000EB9462500E0002522E01BA9681C11F8FC
:100A700000804FF6FF7000EA08281BA8405D40EA9E
:100A8000080829F80480A41CB4F5006F0FD1A9EB65
:100A90000409B6F5406F02D10120CDF87006DDF8EB
:100AA0006C06814502D240F6014604E00024AD1CEC
:100AB000B5F5C06FD9D302E023A001F097FDF61C75
:100AC000B6F5406FC1D900220221104600F0F7F8B8
:100AD00002221146002000F0F2F802221146002006
:100AE00000F0EDF800220221104600F0E8F80022A4
:100AF0000121104600F0E3F87F1C102F8ED320E078
:100B0000002607E0002500E06D1C4EF660208542BF
:100B1000FAD3761CB6F5FA6FF4D300220221104600
:100B200000F0CDF802221146002000F0C8F80222A1
:100B30001146002000F0C3F800220221104600F008
:100B4000BEF8DDE700F817604E6F742066696E69C5
:100B5000736820616C6C20736563746F7273206FAF
:100B6000662074686520696D616765210A00000070
:100B700000BFFEE70021C82300FB03F200BF4B1CAF
:100B800019469342FBD37047B9480068C0F38140CF
:100B9000401C01218140B74890FBF1F07047B448F8
:100BA0000838006820F40070B14908390860084628
:100BB000006820F4007000F500700860704770B5A0
:100BC00005460C4605B903E03721ABA0FFF7D0FF7F
:100BD00015B9B048C46106E0012D02D1AD484465A5
:100BE00001E0AC48446770BD70B505460C4605B9D8
:100BF00003E04321A0A0FFF7BBFF15B9A548C460DF
:100C000006E0012D02D1A348446401E0A1484466F6
:100C100070BD70B505460C4605B903E04F2196A09E
:100C2000FFF7A6FF1DB9E0439A49086108E0012DCE
:100C300003D1E0439749886402E0E0439549886620
:100C400070BD10B5044604B903E05B218AA0FFF72C
:100C50008FFF14B98F48406910BD012C02D18D4817
:100C6000C06CF9E78B48C06EF6E770B505460C46D8
:100C700005B903E0672180A0FFF77AFF15B9854821
:100C8000446106E0012D02D18248C46401E081483C
:100C9000C46670BD70B5054605B903E0752176A040
:100CA000FFF766FF15B97B48046806E0012D02D105
:100CB0007848846B01E07748846D204670BD70B53C
:100CC00006460C46154606B903E083216AA0FFF7E5
:100CD0004FFF1EB96F484460856008E0012E03D1C4
:100CE0006C48C463056402E06A48C465056670BD6B
:100CF0002DE9F04106460F46904606B903E09421DF
:100D00005DA0FFF735FFFFF73FFF6349B0FBF1F050
:100D100000FB08F04FF47A71B0FBF1F084B2FFF7FA
:100D200033FF5D49B0FBF1F078434FF47A71B0FBCB
:100D3000F1F085B2012C01DA204600E0601E84B299
:100D4000012D01DA284600E0681E85B296B900BF81
:100D50005048243001680A4664F30F0211460160CE
:100D600000BF00BF00BF01680A4665F31F4211467D
:100D700001603CE0012E12D100BF464828300168D6
:100D80000A4664F30F021146016000BF00BF00BFB6
:100D900001680A4665F31F421146016027E0022EF2
:100DA00012D100BF3B482C3001680A4664F30F02A1
:100DB0001146016000BF00BF00BF01680A4665F32D
:100DC0001F421146016012E000BF32483030016816
:100DD0000A4664F30F021146016000BF00BF00BF66
:100DE00001680A4665F31F421146016000BFBDE875
:100DF000F08170B505460C4605B903E0AB211EA095
:100E0000FFF7B6FE5DB92348406B64F3000021494B
:100E100048630846006A64F30000086226E0012D7A
:100E20000BD11C48406B64F341001A4948630846E3
:100E3000006A64F34100086218E0022D0BD11548E6
:100E4000406B64F38200134948630846006A64F308
:100E5000820008620AE00F48406B64F3C3000D494A
:100E600048630846006A64F3C300086270BD00006E
:100E70000874004100C2EB0B6C69625F61726D5FC8
:100E800066696C65735C636D656D375F6770696F0C
:100E90002E6300000020004140420F0000BFFEE72B
:100EA0000021C82300FB03F200BF4B1C19469342EC
:100EB000FBD3704710B50446B4F5E06F0BD0B4F522
:100EC000C06F08D0B4F5A06F05D0B4F5806F02D024
:100ED000B4F5407F00D103E0222191A0FFF7DEFFAF
:100EE000964820439649086010BD2DE9F04104461C
:100EF000002500270F266078102800DA03E02D2156
:100F000087A0FFF7CBFFA078102800DA03E02E219E
:100F100083A0FFF7C3FFE07808B38948006800F4B6
:100F2000E060C0F5E060050AC5F10407EE406078B6
:100F300000FA07F5A078304005432D01814822785A
:100F40008554207800F01F01012088402178491144
:100F50004FF0E02202EB8101C1F8000109E02078A6
:100F600000F01F010120884077492278521141F892
:100F70002200BDE8F08170B504460D462CB1B4F1F5
:100F8000005F02D0B4F1006F00D103E04C2164A0F7
:100F9000FFF784FF6D48854200D203E04D2160A039
:100FA000FFF77CFF6A4905EA010020436449091FF5
:100FB000086070BD70B504460D46102C03D0042C9B
:100FC00001D0022C00D103E0552155A0FFF766FFA8
:100FD0003DB95B48001D0068A0435949091D0860E0
:100FE00006E05748001D006820435549091D086068
:100FF00070BD584800685849884207D155480830A4
:1010000000685649884201D1002070470120FCE762
:1010100030B503465C1A4F4D2D1D2C602D1F2C60E2
:101020004C4C08342160002000E0401C6428FCDBAC
:10103000484C241F246862F30004464D2D1F2C6089
:10104000002000E0401C6428FCDB30BD10B50446E5
:10105000FFF7CFFF08B9204610BDB4F1005F04D8F8
:101060003C4808300068A04201D92046F4E73948DE
:1010700000682044F0E710B50446FFF7BAFF08B94E
:10108000204610BDB4F1804F01D22046F9E7314827
:101090000068201AF5E72F492039096860F3060136
:1010A0002C4A203A1160704778B3012804D00228F6
:1010B00014D0032828D11CE000BF29490968C1F3D6
:1010C00080110029F9D023493039096821F4704191
:1010D00001F580511F4A303A11601FE01D49303937
:1010E000096821F4704101F500511A4A303A116043
:1010F00014E018493039096821F4704101F5405174
:10110000144A303A116009E000BF124930390968C9
:1011100021F470410F4A303A116000BF00BF7047A0
:101120006C69625F61726D5F66696C65735C636D4B
:10113000656D375F6D6973632E6300000000FA050B
:101140000CED00E000E400E080E100E0FFFF0F00B4
:1011500080FFFF1F3C7400410000FE1F00000208DA
:101160000070004100BFFEE70021C82300FB03F22E
:1011700000BF4B1C19469342FBD3704770B5044621
:101180000D46C348844202D0C248844200D103E0E5
:101190001E21C1A0FFF7E6FF05B103E01F21BEA09D
:1011A000FFF7E0FF287840B12878012805D028789B
:1011B000022802D02878032800D103E02021B6A01D
:1011C000FFF7D0FFA87800B103E02121B2A0FFF71C
:1011D000C9FF287848B9606820F004006060606842
:1011E00020F008000830606022E02878012808D14B
:1011F000606820F004006060606820F008006060B3
:1012000016E02878022809D1606820F00400001D4B
:101210006060606820F00800606009E0606820F0AD
:101220000400001D6060606820F008000830606005
:101230006978606861F341006060A878401E616968
:1012400060F304016161E97809B9002104E0E878FC
:1012500000EBD0714910491C217670BD70B5044671
:101260000D468B48844202D08A48844200D103E074
:10127000372189A0FFF776FF606865F300006060A2
:1012800070BD70B504460D468148844202D0814845
:10129000844200D103E03D217FA0FFF763FF606837
:1012A00065F34100606070BD70B504460D4616469A
:1012B0007748844202D07748844200D103E043213A
:1012C00075A0FFF74FFF1DB135F07F0000D103E09F
:1012D000442171A0FFF746FF1EB1A068A843A0609B
:1012E00002E0A0682843A060A06800F07F00A06032
:1012F00070BD70B504460D466548844202D065480D
:10130000844200D103E0502163A0FFF72BFF1DB101
:1013100035F07F0000D103E051215FA0FFF722FFED
:10132000E068284201D0012070BD0020FCE770B5C4
:1013300004460D465648844202D05648844200D1A5
:1013400003E05A2154A0FFF70DFF1DB135F07F00D7
:1013500000D103E05B2150A0FFF704FFE56070BD02
:101360002DE9F04104460F4616464948844202D012
:101370004848844200D103E0632147A0FFF7F2FE12
:1013800006B103E0642144A0FFF7ECFE606810F0B2
:10139000010F02D10020BDE8F081002512E0A06A13
:1013A000616901F01F01C1F11F018840616901F00D
:1013B0001F01C1F11F01C84029466A1CD5B246F879
:1013C000210000BF206810F0010F01D1BD42E6DB13
:1013D0002846E0E72DE9F04104460F4616462C4822
:1013E000844202D02B48844200D103E078212AA015
:1013F000FFF7B8FE06B103E0792127A0FFF7B2FEA0
:10140000606810F0010F02D10020BDE8F0810025D6
:101410000CE029466A1CD5B256F82100616901F03A
:101420001F01C1F11F018840A06200BF2068C0F306
:10143000401008B9BD42ECDB2846E6E770B504462B
:101440000D461348844202D01248844200D103E082
:101450008A2111A0FFF786FE05B103E08B210EA0C3
:10146000FFF780FE606810F0010F01D1002070BD11
:10147000681E2062606A20F00100401C606200BFAC
:101480002068C0F300200028FAD10120EFE7000017
:101490000040004100B000416C69625F61726D5FA5
:1014A00066696C65735C636D656D375F7370692E1B
:1014B0006300000000BFFEE70021C82300FB03F229
:1014C00000BF4B1C19469342FBD3704701460022D4
:1014D000FB48814204D1FB480068C0F381320FE031
:1014E000F948814204D1F7480068C0F3013207E0AF
:1014F000F648814204D1F348001D0068C0F3014260
:10150000501C01238340F24890FBF3F070472DE913
:10151000F04105460C46B4F5964F08D8680000EB3C
:1015200004106101B0FBF1F080B2BDE8F0816E0003
:101530000020400540EAD4206205571940F100011F
:1015400032460023384600F0DAFF80B2EDE710B5EE
:101550000446DB48844205D0DB48844202D0DB48A5
:10156000844200D103E04B21DAA0FFF7A3FFD44867
:1015700084420ED1D3480838006820F08000D14959
:10158000083908600846006820F080008030086054
:1015900020E0CD4884420ED1CA480838006820F0C7
:1015A0004000C849083908600846006820F040003B
:1015B000403008600EE0C3480838006820F0005052
:1015C000C049083908600846006820F0005000F162
:1015D0000050086010BD70B504460D46B8488442FE
:1015E00005D0B948844202D0B848844200D103E013
:1015F0005B21B8A0FFF75EFF05B103E05C21B5A059
:10160000FFF758FF2879012807D0287928B12879D1
:10161000032802D02879022800D103E05D21ADA083
:10162000FFF748FF687928B16879012802D0687906
:10163000022800D103E05E21A6A0FFF73BFF204671
:10164000FFF744FF06462968FFF761FF20806879AD
:10165000022801D1012100E00721E06861F30200C6
:10166000E0602979E06861F3C400E06068790228ED
:1016700001D1002000E06879E16860F34511E16084
:10168000E06820F04000E060A979E06861F308209C
:10169000E060E979E06861F3CB20E0602868B0F5AC
:1016A000964F01D9012100E00021E06861F30C3080
:1016B000E060E06820F4806000F58060E060E06851
:1016C00020F4783000F50030E060E06820F4F800A5
:1016D00000F50010E060FF202076206940F2FF71E5
:1016E00008432061E06AC0F30A00E06270BD10B5F3
:1016F000044604B103E07B2176A0FFF7DBFE4FF444
:10170000E130206001202071022060710120A07171
:101710000020E07110BD70B504460D4616466848BD
:10172000844205D06848844202D06848844200D18F
:1017300003E0862167A0FFF7BDFE1DB1E80AC002E5
:1017400000D103E0872163A0FFF7B4FE1EB120693A
:10175000A843206102E02069284320612069C0F38A
:101760000A00206170BD70B504460D46544884429D
:1017700005D05548844202D05448844200D103E049
:10178000932154A0FFF796FE606A65F30000606243
:1017900070BD70B504460D464948844205D04A489C
:1017A000844202D04948844200D103E0992149A0F3
:1017B000FFF780FE1DB1E80AC00200D103E09A21C4
:1017C00044A0FFF777FEE06A284201D0012070BDF7
:1017D0000020FCE770B504460D463948844205D028
:1017E0003948844202D03948844200D103E0A42120
:1017F00038A0FFF75FFE1DB1E80AC00200D103E088
:10180000A52134A0FFF756FEE56270BD70B5044611
:101810000D462B48844205D02B48844202D02B48E9
:10182000844200D103E0AB212AA0FFF743FE1DB1A3
:1018300035F07F0000D103E0AC2126A0FFF73AFE8F
:101840006069284201D0012070BD0020FCE72DE92D
:10185000F04104460F4616461948844205D01A48FE
:10186000844202D01948844200D103E0B92119A072
:10187000FFF720FE06B103E0BA2116A0FFF71AFE1B
:10188000002504E02846691CCDB2305CA080606968
:10189000C0F3801008B9BD42F4DB2846BDE8F081F2
:1018A0002DE9F04104460F4616460548844205D00E
:1018B0000548844202D00548844219D11DE0000049
:1018C000005000410874004100C0004100E00041A8
:1018D00000C2EB0B6C69625F61726D5F66696C657B
:1018E000735C636D656D375F756172742E630000A4
:1018F000C821AFF22000FFF7DDFD06B104E0C921E9
:10190000AFF23000FFF7D6FD002505E02089C2B216
:101910002846691CCDB23254606910F0010F01D025
:10192000BD42F3DB2846BDE8F08100BFFEE70021A1
:10193000C82300FB03F200BF4B1C19469342FBD3A4
:10194000704710B50320FFF7AFFB2320FFF7A3FB81
:1019500010BD00000948804709480047FEE7FEE740
:10196000FEE7FEE7FEE7FEE7FEE7FEE7FEE7FEE74F
:1019700004480549054A064B70470000431900001A
:10198000D9000000700000207006002070020020C6
:101990007002002000BFFEE70021C82300FB03F215
:1019A00000BF4B1C19469342FBD3704740EA01022B
:1019B000F94B1A60704710B5044621464FF00050AD
:1019C000FFF7F4FF10BD70B50446002504B103E035
:1019D000F321F2A0FFF7DEFF2078E0B9A08880288D
:1019E00010D004DC202809D0402813D108E0B0F53D
:1019F000807F09D0B0F5007F0CD108E04B2509E0CD
:101A0000692507E0802505E04FF4807502E04FF47A
:101A1000A47500BF00BF284670BD2DE9F047804681
:101A20000E4600253446002706B104E040F20D11B1
:101A3000DAA0FFF7AFFF4046FFF7C5FF07460525D1
:101A4000DD48C06820F00100401CDB49C860D24876
:101A5000806820F4807000F58070CF498860084667
:101A6000806820F4403000F58030886000BFCA48AC
:101A7000103041F67863B3FBF5F201680B4662F370
:101A80001F431946016000BFC348C06A20F480703C
:101A900000F58070C049C862B7FBF5F1BE48C06C64
:101AA00061F30700BC49C8640846006E20F00100DD
:101AB000401C08662068A0F59851883909D1BF48B4
:101AC000006820F0070000F10500B349C1F8B40038
:101AD0000DE02068A0F53061B83908D1B74800683A
:101AE00020F0070000F10600AB49C1F8B400AA4895
:101AF000006F20F0070000F10200A74908670846C0
:101B0000406F20F0070000F1020048670846806F30
:101B100020F0070000F1020088670846C06F20F03F
:101B2000070000F10200C867A548006820F0010026
:101B300000F10100C1F894000846D0F8940020F0AC
:101B400002009F4908602068A0F59851883927D184
:101B50009C48006820F0FE4000F148508E49C1F8D2
:101B6000A400C0F306618C48D0F8A40061F31540CE
:101B70008949C1F8A400C0F305418748D0F8A40002
:101B800061F30D208449C1F8A400C0F30521824807
:101B9000D0F8A40061F305007F49C1F8A4002BE050
:101BA0002068A0F53061B83926D18648006820F059
:101BB000FE4000F1F0507849C1F8A400C0F306617E
:101BC0007548D0F8A40061F315407349C1F8A4002A
:101BD000C0F305417048D0F8A40061F30D206E49B0
:101BE000C1F8A400C0F305216B48D0F8A40061F34C
:101BF00005006949C1F8A4007348006820F07040EE
:101C000000F1A0406449C1F8AC004FEA107162488D
:101C1000D0F8AC0061F31B605F49C1F8AC00C0F3C1
:101C200003615D48D0F8AC0061F317505A49C1F820
:101C3000AC00C0F303515848D0F8AC0061F3134036
:101C40005549C1F8AC00C0F303415348D0F8AC008B
:101C500061F30F305049C1F8AC00C0F303314E4876
:101C6000D0F8AC0061F30B204B49C1F8AC00C0F3D5
:101C700003214948D0F8AC0061F307104649C1F888
:101C8000AC00C0F303114448D0F8AC0061F303008A
:101C90004149C1F8AC004D48B0FBF5F94846FFF7A3
:101CA0008AFE4FF4C870B0FBF5F949464FF0C040CA
:101CB000FFF77CFE00214FF00040FFF777FEE06861
:101CC000FFF779FE00214248FFF770FE0220FFF780
:101CD00072FE00213F48FFF769FE0220FFF76BFE0E
:101CE0002068A0F59851883903D13B48FFF75EFE84
:101CF00008E02068A0F53061B83903D136480830D3
:101D0000FFF754FE0220FFF756FE2068A0F5985119
:101D1000883903D13148FFF749FE07E02068A0F574
:101D20003061B83902D12E48FFF740FE0220FFF79C
:101D300042FE00214FF00040FFF738FEE068FFF759
:101D40003AFE00214FF01040FFF730FEB7FBF5F9E7
:101D50004846FFF730FE00214FF01040FFF726FE07
:101D6000B7FBF5F94846FFF726FEA069401E400282
:101D7000626840EA0210C11C4FF00840FFF716FEEF
:101D8000C820FFF718FE00211648FFF70FFE0220BB
:101D9000FFF711FEBDE8F087000040416C69625F0B
:101DA00061726D5F66696C65735C636D656D375FED
:101DB0006464722E6300000000007041B400404172
:101DC00094004041A4004041AC004041400D03005C
:101DD0000000028800000388C403018853050088BE
:101DE000530900880400018870B50446002504B139
:101DF00005E04FF4A771AFF25C00FFF7CBFD207850
:101E000001281DD1A088B0F5807F10D004DC4028C7
:101E100009D0802813D108E0B0F5007F09D0B0F5D3
:101E2000806F0CD108E05A2509E06E2507E0A02557
:101E300005E04FF4967502E04FF4AF7500BF00BFA8
:101E4000284670BD2DE9F04780460E460024002745
:101E500035464046FFF7C8FF07460524FE48806820
:101E600020F4807000F58070FB4988600846C068E7
:101E700020F00100401CC86000BFF748103041F658
:101E80007863B3FBF4F201680B4662F31F43194613
:101E9000016000BFF048006920F4706000F58070B8
:101EA000ED4908610846006920F01F00083008610C
:101EB0000846C06920F00100401CC861E748B0FB3B
:101EC000F4F008620846C06A20F4807000F5807063
:101ED000C862B7FBF4F1E048C06C61F30700DE496B
:101EE000C8642868A0F59851883909D1DC48006891
:101EF00020F0070000F10500D749C1F8B4000DE05B
:101F00002868A0F53061B83908D1D548006820F0BC
:101F1000070000F10600D049C1F8B400CE48006EB9
:101F200020F0010000F10100CB4908660846006F6F
:101F300020F0070000F1020008670846406F20F01B
:101F4000070000F1020048670846806F20F0070094
:101F500000F1020088670846C06F20F0070000F11A
:101F60000200C8674FF000014FF02840FFF71EFD48
:101F7000BC48B0FBF4F94846FFF71DFD00214FF0C7
:101F80003040FFF713FDB848B0FBF4F94846FFF7BF
:101F900012FD07F10A00B0FBF4F949464FF0C040CA
:101FA000FFF704FDA868401FC100B048FFF7FEFC22
:101FB0000420FFF700FD0021AD48FFF7F7FC0420E7
:101FC000FFF7F9FC0421AB48FFF7F0FC0420FFF712
:101FD000F2FC686A401E4FF4885242EA4022686868
:101FE0000B2804D968680C380001001D02E06868FD
:101FF000001F000142EA00014FF00840FFF7D6FC45
:102000000F20B0FBF4F00C2801D80C2002E00F20C8
:10201000B0FBF4F08146FFF7CEFC00214FF03840D2
:10202000FFF7C4FC4FF42070B0FBF4F0B0F5007F74
:1020300002D84FF4007003E04FF42070B0FBF4F0CE
:102040008146FFF7B8FC4FF40070FFF7B4FCBDE821
:10205000F0878948006820F4003087490860084606
:10206000006820F4003000F50030086070472DE96A
:10207000FC5F07460C464FF00008002001908246A6
:1020800000908146834607B105E040F2AD11AFF202
:10209000F420FFF77FFC04B105E04FF4D771AFF2F5
:1020A0000430FFF777FC002626E0387806EB46017F
:1020B000724A12F8111088421DD1787806EB460159
:1020C00002EB41018978884215D1B87806EB4601C8
:1020D00002EB4101C97888420DD1B88806EB460170
:1020E00002EB41018988884205D106EB4600114682
:1020F00001EB400B02E0761C262ED6D300BFBBF1CD
:10210000000F02D10020BDE8FC9F5D48006820F070
:1021100001005B49086000BF5A48006820F0400099
:102120005949C1F898004FF00A00FFF735FC5548AF
:10213000006820F0400000F140005349C1F89800C9
:102140004FF00A00FFF728FC5048006800F04000FC
:102150004028E1D14A48006820F00100401C48496D
:1021600008609BF801103C48806861F305003A491B
:1021700088609BF80000E8BB254629793648406E08
:1021800061F3040034494866297A3348406A61F3B0
:10219000040031494862297B2F48C06A61F304007A
:1021A0002D49C862297C2C48006B61F306002A493E
:1021B0000863297D2848806A61F305002649886202
:1021C000A8690190286A0090297F2348406B61F339
:1021D00003002149486395F824101F48406C61F3BF
:1021E00002001D49486495F828101B48806D61F372
:1021F000050000E006E01849886529465846FFF7C3
:102200000CFC71E0254629791348406E61F3040007
:1022100011494866D5F808A0297B0F48406A61F348
:1022200004000D494862297C0B48806A61F305006F
:1022300009498862297D0848C06A61F3040006499B
:10224000C862297E0448006B61F3060002490863F6
:10225000297F0148406B1BE0000040410020A1079E
:10226000B4004041400D030020A107000000028897
:10227000000003880000018800740041E42600008B
:10228000007C0041980070410000704100700041E6
:1022900061F303009449486395F820109248806DDB
:1022A00061F3050090498865686A0190D5F800904F
:1022B00095F828108C48406C61F302008A49486404
:1022C000A98D8948006D61F308008749086595F874
:1022D00030108548406D61F3060083494865294602
:1022E0005846FFF7AFFD00BF7F48406E00F01F0863
:1022F0007D48806810F0200F0BD0009850447A4938
:10230000C96D11F0010F01D0022100E00421084441
:102310000FE041F64C50B0EB890F01D2122008E0DB
:1023200041F64C5000EB8900401E41F64C51B0FB89
:10233000F1F06D49096C60F304016B480164806839
:1023400010F0200F08D06848C06D10F0010F01D0C8
:10235000022102E0042100E004216348806B61F364
:102360000200614988630846806810F0200F08D099
:102370000846C06D10F0010F01D0042011E00620C6
:102380000FE05948806B00F007004044A0EB0A00C2
:102390005549C96D11F0010F01D0002100E0022163
:1023A00008445149C96B60F304014F48C163806818
:1023B00010F0200F0BD0019840444B49C96D11F02B
:1023C000010F01D0012100E0032108440AE0019837
:1023D00050444549C96D11F0010F01D0022100E0C0
:1023E000042108444049896C60F305013E4881643A
:1023F000806810F0200F07D0B8F1030F01D34046DA
:1024000000E00320C01E01E0AAF102003649896EF7
:1024100060F3040134488166806810F0200F07D013
:10242000B8F1040F01D3404600E00420001F00E093
:1024300000202E49096860F304012B48C0F8801081
:10244000A9F5985088381FD12748806810F0200FD0
:102450000AD02548C06D10F0010F02D0A8F101008C
:102460000AE008F1010007E01F48C06D10F0010FFD
:1024700001D0042000E006201D49096860F3040132
:102480001948C0F884100CE0A9F53060B83808D1BC
:102490001748006820F01F0000F11F001249C1F822
:1024A00084001148406820F0040000F104000E4947
:1024B000486000BF0F480068C0F340000028F9D012
:1024C00000BF0D48006810F0010FFAD006484068C0
:1024D00020F0010004494860496860F38201024825
:1024E000416001200FE600000000404180004041B3
:1024F000840040419000404198004041704753EAB9
:10250000020C00F069802DE9F04B4FF00006002B23
:102510001FBFB3FA83F503FA05F424FA05F65E400B
:1025200012BF1643B2FA82F502FA05F4C5F120058E
:102530001EBF22FA05FC44EA0C04203556EA044C7E
:102540004FEA144418BF641C4FF000084FF0000914
:10255000904271EB030C39D3002919BFB1FA81F70E
:1025600001FA07F6B0FA80F700FA07F6C7F120077C
:102570001EBF20FA07FC46EA0C062037B6FBF4FC27
:10258000A7EB0507103F07F01F0BCBF120060CFA55
:102590000BFB2CFA06F644BFB3460026202FA4BF3F
:1025A0005E464FF0000B5BEA060C08BF4FF0010BD4
:1025B00019EB0B09ABFB027C48EB0608C01B06FBC2
:1025C00002CC0BFB03CC71EB0C01C1E70B460246BE
:1025D00041464846BDE8F08B13B54FF000004FF080
:1025E0000001AFF30080BDE81C4070470FB4044900
:1025F00010B503AA029800F009F810BC5DF814FBAE
:10260000040000207047704770470000074B70B50A
:102610000D467B4400F011F804462846FDF7E1FD25
:1026200010B14FF0FF3070BD204670BD77DBFFFF6B
:1026300001694A1C02610878704700B58FB0CDE986
:1026400001310021059105497944CDE90310114676
:10265000684600F02AF80FB000BD0000E5FFFFFF5C
:10266000754600F03BF8AE4605006946534620F03B
:102670000700854618B020B5FFF77AF9BDE820407D
:102680004FF000064FF000074FF000084FF0000B2E
:1026900021F00701AC46ACE8C009ACE8C009ACE8E1
:1026A000C009ACE8C0098D4670472DE9F0410646E7
:1026B0000024D6E90170F568804602E04146B8473B
:1026C000641C3046A8470028F8D12046BDE8F081B8
:1026D0000446AFF300802046FDF745FD00487047F3
:1026E0001000002000200808200000210810200011
:1026F00000220810400000230808400000241008B1
:102700002000002510102000002610104000002797
:1027100010084000002808088000002908108000E8
:10272000002A08080001002B08100001002C1008E6
:102730008000002D10108000002E10080001002FD6
:1027400010100001003008080002003108080002E3
:1027500000321008000200331008000201000808CF
:10276000400001010808800001020808000101037F
:10277000080800020104081040000105081080004C
:1027800001060810000101070810000201081008E6
:102790004000010910088000010A10080001010B27
:1027A00010080002010C10104000010D10108000F4
:1027B000010E10100001010F10100002011008108E
:1027C0000004011010100004881300000400000031
:1027D00003000000030000000E0000000B000000DA
:1027E00003000000020000000B00000002000000D7
:1027F0000A000000B80B0000050000000500000002
:1028000005000000140000000F000000050000009B
:102810000400000007000000030000001100000099
:1028200088130000050000000700000005000000FC
:1028300008000000050000000A000000640000001D
:102840000A00000005000000040000000001000074
:1028500040000000B80B0000050000000700000069
:10286000050000001E000000050000003C00000004
:10287000100000001100000005000000040000002E
:102880000001000040000000A82800000000002017
:102890001000000014010000B82800001000002003
:1028A0006006000030010000000000000000000091
:0828B000000000000000000020
:04000005000000D91E
:00000001FF
